{
  "contractName": "DAPContract",
  "abi": [
    {
      "inputs": [],
      "stateMutability": "nonpayable",
      "type": "constructor"
    },
    {
      "anonymous": false,
      "inputs": [
        {
          "indexed": false,
          "internalType": "uint256",
          "name": "noticeNumber",
          "type": "uint256"
        },
        {
          "indexed": false,
          "internalType": "string",
          "name": "callNumber",
          "type": "string"
        },
        {
          "indexed": false,
          "internalType": "string",
          "name": "portCode",
          "type": "string"
        },
        {
          "indexed": false,
          "internalType": "string",
          "name": "shipName",
          "type": "string"
        },
        {
          "indexed": false,
          "internalType": "string",
          "name": "operatorName",
          "type": "string"
        }
      ],
      "name": "DAPRecorded",
      "type": "event"
    },
    {
      "anonymous": false,
      "inputs": [
        {
          "indexed": true,
          "internalType": "uint256",
          "name": "noticeNumber",
          "type": "uint256"
        },
        {
          "indexed": false,
          "internalType": "string",
          "name": "oldStatus",
          "type": "string"
        },
        {
          "indexed": false,
          "internalType": "string",
          "name": "newStatus",
          "type": "string"
        }
      ],
      "name": "DAPStatusUpdated",
      "type": "event"
    },
    {
      "anonymous": false,
      "inputs": [
        {
          "indexed": true,
          "internalType": "bytes32",
          "name": "eventId",
          "type": "bytes32"
        },
        {
          "indexed": true,
          "internalType": "address",
          "name": "recorder",
          "type": "address"
        },
        {
          "indexed": false,
          "internalType": "uint256",
          "name": "timestamp",
          "type": "uint256"
        }
      ],
      "name": "EventRecorded",
      "type": "event"
    },
    {
      "anonymous": false,
      "inputs": [
        {
          "indexed": true,
          "internalType": "address",
          "name": "previousOwner",
          "type": "address"
        },
        {
          "indexed": true,
          "internalType": "address",
          "name": "newOwner",
          "type": "address"
        }
      ],
      "name": "OwnershipTransferred",
      "type": "event"
    },
    {
      "anonymous": false,
      "inputs": [
        {
          "indexed": true,
          "internalType": "bytes32",
          "name": "eventId",
          "type": "bytes32"
        },
        {
          "indexed": false,
          "internalType": "string",
          "name": "oldStatus",
          "type": "string"
        },
        {
          "indexed": false,
          "internalType": "string",
          "name": "newStatus",
          "type": "string"
        }
      ],
      "name": "StatusUpdated",
      "type": "event"
    },
    {
      "inputs": [],
      "name": "getEventId",
      "outputs": [
        {
          "internalType": "bytes32",
          "name": "",
          "type": "bytes32"
        }
      ],
      "stateMutability": "view",
      "type": "function"
    },
    {
      "inputs": [],
      "name": "getRecorder",
      "outputs": [
        {
          "internalType": "address",
          "name": "",
          "type": "address"
        }
      ],
      "stateMutability": "view",
      "type": "function"
    },
    {
      "inputs": [],
      "name": "getStatus",
      "outputs": [
        {
          "internalType": "string",
          "name": "",
          "type": "string"
        }
      ],
      "stateMutability": "view",
      "type": "function"
    },
    {
      "inputs": [],
      "name": "getTimestamp",
      "outputs": [
        {
          "internalType": "uint256",
          "name": "",
          "type": "uint256"
        }
      ],
      "stateMutability": "view",
      "type": "function"
    },
    {
      "inputs": [],
      "name": "owner",
      "outputs": [
        {
          "internalType": "address",
          "name": "",
          "type": "address"
        }
      ],
      "stateMutability": "view",
      "type": "function"
    },
    {
      "inputs": [],
      "name": "renounceOwnership",
      "outputs": [],
      "stateMutability": "nonpayable",
      "type": "function"
    },
    {
      "inputs": [
        {
          "internalType": "address",
          "name": "newOwner",
          "type": "address"
        }
      ],
      "name": "transferOwnership",
      "outputs": [],
      "stateMutability": "nonpayable",
      "type": "function"
    },
    {
      "inputs": [
        {
          "internalType": "uint256",
          "name": "noticeNumber",
          "type": "uint256"
        },
        {
          "internalType": "string",
          "name": "callNumber",
          "type": "string"
        },
        {
          "internalType": "string",
          "name": "portName",
          "type": "string"
        },
        {
          "internalType": "string",
          "name": "portCode",
          "type": "string"
        },
        {
          "internalType": "string",
          "name": "shipName",
          "type": "string"
        },
        {
          "internalType": "string",
          "name": "operatorName",
          "type": "string"
        },
        {
          "internalType": "string",
          "name": "status",
          "type": "string"
        },
        {
          "internalType": "uint256",
          "name": "requestDate",
          "type": "uint256"
        }
      ],
      "name": "recordDAP",
      "outputs": [
        {
          "internalType": "bytes32",
          "name": "",
          "type": "bytes32"
        }
      ],
      "stateMutability": "nonpayable",
      "type": "function"
    },
    {
      "inputs": [
        {
          "internalType": "uint256",
          "name": "noticeNumber",
          "type": "uint256"
        },
        {
          "internalType": "string",
          "name": "newStatus",
          "type": "string"
        }
      ],
      "name": "updateDAPStatus",
      "outputs": [],
      "stateMutability": "nonpayable",
      "type": "function"
    },
    {
      "inputs": [
        {
          "internalType": "uint256",
          "name": "noticeNumber",
          "type": "uint256"
        }
      ],
      "name": "getDAPByNoticeNumber",
      "outputs": [
        {
          "internalType": "string",
          "name": "callNumber",
          "type": "string"
        },
        {
          "internalType": "string",
          "name": "portName",
          "type": "string"
        },
        {
          "internalType": "string",
          "name": "portCode",
          "type": "string"
        },
        {
          "internalType": "string",
          "name": "shipName",
          "type": "string"
        },
        {
          "internalType": "string",
          "name": "operatorName",
          "type": "string"
        },
        {
          "internalType": "string",
          "name": "status",
          "type": "string"
        },
        {
          "internalType": "uint256",
          "name": "requestDate",
          "type": "uint256"
        }
      ],
      "stateMutability": "view",
      "type": "function"
    },
    {
      "inputs": [
        {
          "internalType": "string",
          "name": "callNumber",
          "type": "string"
        }
      ],
      "name": "getCallNumberEvents",
      "outputs": [
        {
          "internalType": "bytes32[]",
          "name": "",
          "type": "bytes32[]"
        }
      ],
      "stateMutability": "view",
      "type": "function"
    },
    {
      "inputs": [
        {
          "internalType": "string",
          "name": "portCode",
          "type": "string"
        }
      ],
      "name": "getPortCodeEvents",
      "outputs": [
        {
          "internalType": "bytes32[]",
          "name": "",
          "type": "bytes32[]"
        }
      ],
      "stateMutability": "view",
      "type": "function"
    },
    {
      "inputs": [
        {
          "internalType": "uint256",
          "name": "noticeNumber",
          "type": "uint256"
        }
      ],
      "name": "dapExists",
      "outputs": [
        {
          "internalType": "bool",
          "name": "",
          "type": "bool"
        }
      ],
      "stateMutability": "view",
      "type": "function"
    }
  ],
  "bytecode": "0x608060405234801561001057600080fd5b506000805542600155600380546001600160a01b031916339081179091556100378161003d565b5061008f565b600480546001600160a01b038381166001600160a01b0319831681179093556040519116919082907f8be0079c531659141344cd1fd0a4f28419497f9722a3daafe3b4186f6b6457e090600090a35050565b6114648061009e6000396000f3fe608060405234801561001057600080fd5b50600436106100cf5760003560e01c8063603eeb6a1161008c578063b6c3afca11610066578063b6c3afca146101c2578063e8e6be75146101d3578063f03b5d07146101e6578063f2fde38b146101f957600080fd5b8063603eeb6a14610161578063715018a6146101935780638da5cb5b1461019d57600080fd5b8063188ec356146100d4578063247c5ef1146100eb5780633a649fa01461011157806349b7e331146101315780634a17bbde146101445780634e69d5601461014c575b600080fd5b6001545b6040519081526020015b60405180910390f35b6100fe6100f9366004610d88565b61020c565b6040516100e29796959493929190610df1565b61012461011f366004610f40565b6105fb565b6040516100e29190610f7d565b61012461013f366004610f40565b61066b565b6000546100d8565b61015461067d565b6040516100e29190610fc1565b61018361016f366004610d88565b600090815260066020526040902054151590565b60405190151581526020016100e2565b61019b61070f565b005b6004546001600160a01b03165b6040516001600160a01b0390911681526020016100e2565b6003546001600160a01b03166101aa565b61019b6101e1366004610fdb565b610754565b6100d86101f4366004611022565b6108c4565b61019b61020736600461112c565b610b63565b600081815260066020526040812054606091829182918291829182918061024e5760405162461bcd60e51b815260040161024590611155565b60405180910390fd5b6000818152600560205260409020600781015460ff166102a55760405162461bcd60e51b8152602060048201526012602482015271111054081b9bdd081c9959da5cdd195c995960721b6044820152606401610245565b8060010181600201826003018360040184600501306001600160a01b0316634e69d5606040518163ffffffff1660e01b8152600401600060405180830381865afa1580156102f7573d6000803e3d6000fd5b505050506040513d6000823e601f3d908101601f1916820160405261031f9190810190611199565b866006015486805461033090611210565b80601f016020809104026020016040519081016040528092919081815260200182805461035c90611210565b80156103a95780601f1061037e576101008083540402835291602001916103a9565b820191906000526020600020905b81548152906001019060200180831161038c57829003601f168201915b505050505096508580546103bc90611210565b80601f01602080910402602001604051908101604052809291908181526020018280546103e890611210565b80156104355780601f1061040a57610100808354040283529160200191610435565b820191906000526020600020905b81548152906001019060200180831161041857829003601f168201915b5050505050955084805461044890611210565b80601f016020809104026020016040519081016040528092919081815260200182805461047490611210565b80156104c15780601f10610496576101008083540402835291602001916104c1565b820191906000526020600020905b8154815290600101906020018083116104a457829003601f168201915b505050505094508380546104d490611210565b80601f016020809104026020016040519081016040528092919081815260200182805461050090611210565b801561054d5780601f106105225761010080835404028352916020019161054d565b820191906000526020600020905b81548152906001019060200180831161053057829003601f168201915b5050505050935082805461056090611210565b80601f016020809104026020016040519081016040528092919081815260200182805461058c90611210565b80156105d95780601f106105ae576101008083540402835291602001916105d9565b820191906000526020600020905b8154815290600101906020018083116105bc57829003601f168201915b5050505050925098509850985098509850985098505050919395979092949650565b606060078260405161060d919061124a565b908152604080519182900360209081018320805480830285018301909352828452919083018282801561065f57602002820191906000526020600020905b81548152602001906001019080831161064b575b50505050509050919050565b606060088260405161060d919061124a565b60606002805461068c90611210565b80601f01602080910402602001604051908101604052809291908181526020018280546106b890611210565b80156107055780601f106106da57610100808354040283529160200191610705565b820191906000526020600020905b8154815290600101906020018083116106e857829003601f168201915b5050505050905090565b336107226004546001600160a01b031690565b6001600160a01b0316146107485760405162461bcd60e51b815260040161024590611266565b6107526000610c0d565b565b336107676004546001600160a01b031690565b6001600160a01b03161461078d5760405162461bcd60e51b815260040161024590611266565b600082815260066020526040902054806107b95760405162461bcd60e51b815260040161024590611155565b6000818152600560205260409020600781015460ff166108105760405162461bcd60e51b8152602060048201526012602482015271111054081b9bdd081c9959da5cdd195c995960721b6044820152606401610245565b6000306001600160a01b0316634e69d5606040518163ffffffff1660e01b8152600401600060405180830381865afa158015610850573d6000803e3d6000fd5b505050506040513d6000823e601f3d908101601f191682016040526108789190810190611199565b905061088384610c5f565b847f2854cc4e178e70e164bac6d4ef0e7777aaad55b93bbf3d26afd9c0ada363d00c82866040516108b592919061129b565b60405180910390a25050505050565b6000336108d96004546001600160a01b031690565b6001600160a01b0316146108ff5760405162461bcd60e51b815260040161024590611266565b6000894260405160200161091d929190918252602082015260400190565b60408051601f19818403018152918152815160209283012060008d81526006909352912054909150156109a95760405162461bcd60e51b815260206004820152602e60248201527f44415020776974682074686973206e6f74696365206e756d62657220616c726560448201526d18591e481c9959da5cdd195c995960921b6064820152608401610245565b60408051610100810182528b815260208082018c81528284018c9052606083018b9052608083018a905260a0830189905260c08301879052600160e0840181905260008681526005909352939091208251815590519192839290820190610a10908261130f565b5060408201516002820190610a25908261130f565b5060608201516003820190610a3a908261130f565b5060808201516004820190610a4f908261130f565b5060a08201516005820190610a64908261130f565b5060c082015160068281019190915560e0909201516007918201805460ff191691151591909117905560008d81526020929092526040918290208490559051610aae908c9061124a565b90815260405190819003602090810182208054600181018255600091825291902001839055600890610ae1908a9061124a565b908152604051602091819003820190208054600181018255600091825291902001829055610b0e85610c5f565b610b16610d3e565b7f08fd1a88ea7064319aff414b580139aa5f3ee9190d23ff45c1b11c73260802378b8b8a8a8a604051610b4d9594939291906113cf565b60405180910390a1509998505050505050505050565b33610b766004546001600160a01b031690565b6001600160a01b031614610b9c5760405162461bcd60e51b815260040161024590611266565b6001600160a01b038116610c015760405162461bcd60e51b815260206004820152602660248201527f4f776e61626c653a206e6577206f776e657220697320746865207a65726f206160448201526564647265737360d01b6064820152608401610245565b610c0a81610c0d565b50565b600480546001600160a01b038381166001600160a01b0319831681179093556040519116919082907f8be0079c531659141344cd1fd0a4f28419497f9722a3daafe3b4186f6b6457e090600090a35050565b600060028054610c6e90611210565b80601f0160208091040260200160405190810160405280929190818152602001828054610c9a90611210565b8015610ce75780601f10610cbc57610100808354040283529160200191610ce7565b820191906000526020600020905b815481529060010190602001808311610cca57829003601f168201915b505050505090508160029081610cfd919061130f565b506000547f8a979ee443e267bf0699140bdad48b1371e276c41b1181861cee23a8f8f326a68284604051610d3292919061129b565b60405180910390a25050565b6003546000546001546040519081526001600160a01b03909216917f077c9a6b96e4352c25dd28e210601f1b36b9a93891e2b67fa6198c12232bfc949060200160405180910390a3565b600060208284031215610d9a57600080fd5b5035919050565b60005b83811015610dbc578181015183820152602001610da4565b50506000910152565b60008151808452610ddd816020860160208601610da1565b601f01601f19169290920160200192915050565b60e081526000610e0460e083018a610dc5565b8281036020840152610e16818a610dc5565b90508281036040840152610e2a8189610dc5565b90508281036060840152610e3e8188610dc5565b90508281036080840152610e528187610dc5565b905082810360a0840152610e668186610dc5565b9150508260c083015298975050505050505050565b634e487b7160e01b600052604160045260246000fd5b604051601f8201601f1916810167ffffffffffffffff81118282101715610eba57610eba610e7b565b604052919050565b600067ffffffffffffffff821115610edc57610edc610e7b565b50601f01601f191660200190565b600082601f830112610efb57600080fd5b8135610f0e610f0982610ec2565b610e91565b818152846020838601011115610f2357600080fd5b816020850160208301376000918101602001919091529392505050565b600060208284031215610f5257600080fd5b813567ffffffffffffffff811115610f6957600080fd5b610f7584828501610eea565b949350505050565b6020808252825182820181905260009190848201906040850190845b81811015610fb557835183529284019291840191600101610f99565b50909695505050505050565b602081526000610fd46020830184610dc5565b9392505050565b60008060408385031215610fee57600080fd5b82359150602083013567ffffffffffffffff81111561100c57600080fd5b61101885828601610eea565b9150509250929050565b600080600080600080600080610100898b03121561103f57600080fd5b88359750602089013567ffffffffffffffff8082111561105e57600080fd5b61106a8c838d01610eea565b985060408b013591508082111561108057600080fd5b61108c8c838d01610eea565b975060608b01359150808211156110a257600080fd5b6110ae8c838d01610eea565b965060808b01359150808211156110c457600080fd5b6110d08c838d01610eea565b955060a08b01359150808211156110e657600080fd5b6110f28c838d01610eea565b945060c08b013591508082111561110857600080fd5b506111158b828c01610eea565b92505060e089013590509295985092959890939650565b60006020828403121561113e57600080fd5b81356001600160a01b0381168114610fd457600080fd5b60208082526024908201527f444150206e6f7420666f756e6420666f722074686973206e6f74696365206e7560408201526336b132b960e11b606082015260800190565b6000602082840312156111ab57600080fd5b815167ffffffffffffffff8111156111c257600080fd5b8201601f810184136111d357600080fd5b80516111e1610f0982610ec2565b8181528560208385010111156111f657600080fd5b611207826020830160208601610da1565b95945050505050565b600181811c9082168061122457607f821691505b60208210810361124457634e487b7160e01b600052602260045260246000fd5b50919050565b6000825161125c818460208701610da1565b9190910192915050565b6020808252818101527f4f776e61626c653a2063616c6c6572206973206e6f7420746865206f776e6572604082015260600190565b6040815260006112ae6040830185610dc5565b82810360208401526112078185610dc5565b601f82111561130a57600081815260208120601f850160051c810160208610156112e75750805b601f850160051c820191505b81811015611306578281556001016112f3565b5050505b505050565b815167ffffffffffffffff81111561132957611329610e7b565b61133d816113378454611210565b846112c0565b602080601f831160018114611372576000841561135a5750858301515b600019600386901b1c1916600185901b178555611306565b600085815260208120601f198616915b828110156113a157888601518255948401946001909101908401611382565b50858210156113bf5787850151600019600388901b60f8161c191681555b5050505050600190811b01905550565b85815260a0602082015260006113e860a0830187610dc5565b82810360408401526113fa8187610dc5565b9050828103606084015261140e8186610dc5565b905082810360808401526114228185610dc5565b9897505050505050505056fea26469706673582212203c78a2323f359c8833a7a2d88dc547b2e4615c2c983f71a10ce50431646722a764736f6c63430008110033",
  "immutableReferences": {},
  "source": "// SPDX-License-Identifier: UNLICENSED\r\npragma solidity ^0.8.17;\r\n\r\nimport \"./PortnetEventBase.sol\";\r\nimport \"./access/Ownable.sol\";\r\n\r\n/**\r\n * @title DAPContract\r\n * @dev Contract for recording DAP (Demande d'Autorisation Pralable) events from RabbitMQ\r\n */\r\ncontract DAPContract is PortnetEventBase, Ownable {\r\n    // Events specific to DAP\r\n    event DAPRecorded(\r\n        uint256 noticeNumber,\r\n        string callNumber,\r\n        string portCode,\r\n        string shipName,\r\n        string operatorName\r\n    );\r\n    \r\n    event DAPStatusUpdated(\r\n        uint256 indexed noticeNumber,\r\n        string oldStatus,\r\n        string newStatus\r\n    );\r\n    \r\n    // DAP specific properties\r\n    struct DAP {\r\n        uint256 noticeNumber;\r\n        string callNumber;\r\n        string portName;\r\n        string portCode;\r\n        string shipName;\r\n        string operatorName;\r\n        uint256 requestDate;\r\n        bool isRegistered;\r\n    }\r\n    \r\n    // Mapping to store all DAPs by their event ID\r\n    mapping(bytes32 => DAP) private _daps;\r\n    \r\n    // Mapping to track notice numbers to event IDs for quick lookup\r\n    mapping(uint256 => bytes32) private _noticeNumberToEvent;\r\n    \r\n    // Mapping to track call numbers to event IDs for quick lookup\r\n    mapping(string => bytes32[]) private _callNumberToEvents;\r\n    \r\n    // Mapping to track port codes to DAP event IDs for quick lookup\r\n    mapping(string => bytes32[]) private _portCodeToEvents;\r\n    \r\n    /**\r\n     * @dev Constructor sets up the contract with ownership\r\n     */\r\n    constructor() PortnetEventBase(0) Ownable(msg.sender) {\r\n        // Initialize contract\r\n    }\r\n    \r\n    /**\r\n     * @dev Records a new DAP event on the blockchain\r\n     * @param noticeNumber Unique identifier for the notice\r\n     * @param callNumber Port call number associated with the notice\r\n     * @param portName Name of the port\r\n     * @param portCode Code of the port\r\n     * @param shipName Name of the ship\r\n     * @param operatorName Name of the ship operator\r\n     * @param status Current status of the DAP (e.g., \"PENDING\", \"APPROVED\", \"REJECTED\")\r\n     * @param requestDate Time when the request was made (Unix timestamp)\r\n     * @return The generated event ID\r\n     */\r\n    function recordDAP(\r\n        uint256 noticeNumber,\r\n        string memory callNumber,\r\n        string memory portName,\r\n        string memory portCode,\r\n        string memory shipName,\r\n        string memory operatorName,\r\n        string memory status,\r\n        uint256 requestDate\r\n    ) external onlyOwner returns (bytes32) {\r\n        // Generate a unique event ID based on the notice number (assuming it's unique)\r\n        bytes32 eventId = keccak256(abi.encodePacked(noticeNumber, block.timestamp));\r\n        \r\n        // Check if a DAP with this notice number already exists\r\n        require(_noticeNumberToEvent[noticeNumber] == bytes32(0), \"DAP with this notice number already registered\");\r\n        \r\n        // Store the DAP data\r\n        DAP memory dap = DAP({\r\n            noticeNumber: noticeNumber,\r\n            callNumber: callNumber,\r\n            portName: portName,\r\n            portCode: portCode,\r\n            shipName: shipName,\r\n            operatorName: operatorName,\r\n            requestDate: requestDate,\r\n            isRegistered: true\r\n        });\r\n        \r\n        _daps[eventId] = dap;\r\n        _noticeNumberToEvent[noticeNumber] = eventId;\r\n        _callNumberToEvents[callNumber].push(eventId);\r\n        _portCodeToEvents[portCode].push(eventId);\r\n        \r\n        // Set the initial status\r\n        _updateStatus(status);\r\n        \r\n        // Record the event\r\n        _recordEvent();\r\n        \r\n        // Emit the DAP specific event\r\n        emit DAPRecorded(\r\n            noticeNumber,\r\n            callNumber,\r\n            portCode,\r\n            shipName,\r\n            operatorName\r\n        );\r\n        \r\n        return eventId;\r\n    }\r\n    \r\n    /**\r\n     * @dev Updates an existing DAP's status\r\n     * @param noticeNumber The notice number of the DAP to update\r\n     * @param newStatus New status of the DAP\r\n     */\r\n    function updateDAPStatus(\r\n        uint256 noticeNumber,\r\n        string memory newStatus\r\n    ) external onlyOwner {\r\n        // Get the event ID for this notice number\r\n        bytes32 eventId = _noticeNumberToEvent[noticeNumber];\r\n        require(eventId != bytes32(0), \"DAP not found for this notice number\");\r\n        \r\n        // Get the DAP\r\n        DAP storage dap = _daps[eventId];\r\n        require(dap.isRegistered, \"DAP not registered\");\r\n        \r\n        // Get the old status\r\n        string memory oldStatus = this.getStatus();\r\n        \r\n        // Update the status\r\n        _updateStatus(newStatus);\r\n        \r\n        // Emit the update event\r\n        emit DAPStatusUpdated(\r\n            noticeNumber,\r\n            oldStatus,\r\n            newStatus\r\n        );\r\n    }\r\n    \r\n    /**\r\n     * @dev Gets a DAP by notice number\r\n     * @param noticeNumber The notice number to look up\r\n     * @return callNumber Call number associated with the notice\r\n     * @return portName Name of the port\r\n     * @return portCode Code of the port\r\n     * @return shipName Name of the ship\r\n     * @return operatorName Name of the operator\r\n     * @return status Current status\r\n     * @return requestDate Time when the request was made\r\n     */\r\n    function getDAPByNoticeNumber(uint256 noticeNumber) external view returns (\r\n        string memory callNumber,\r\n        string memory portName,\r\n        string memory portCode,\r\n        string memory shipName,\r\n        string memory operatorName,\r\n        string memory status,\r\n        uint256 requestDate\r\n    ) {\r\n        bytes32 eventId = _noticeNumberToEvent[noticeNumber];\r\n        require(eventId != bytes32(0), \"DAP not found for this notice number\");\r\n        \r\n        DAP storage dap = _daps[eventId];\r\n        require(dap.isRegistered, \"DAP not registered\");\r\n        \r\n        return (\r\n            dap.callNumber,\r\n            dap.portName,\r\n            dap.portCode,\r\n            dap.shipName,\r\n            dap.operatorName,\r\n            this.getStatus(),\r\n            dap.requestDate\r\n        );\r\n    }\r\n    \r\n    /**\r\n     * @dev Gets all event IDs for a call number\r\n     * @param callNumber The call number to look up\r\n     * @return An array of event IDs\r\n     */\r\n    function getCallNumberEvents(string memory callNumber) external view returns (bytes32[] memory) {\r\n        return _callNumberToEvents[callNumber];\r\n    }\r\n    \r\n    /**\r\n     * @dev Gets all event IDs for a port code\r\n     * @param portCode The port code to look up\r\n     * @return An array of event IDs\r\n     */\r\n    function getPortCodeEvents(string memory portCode) external view returns (bytes32[] memory) {\r\n        return _portCodeToEvents[portCode];\r\n    }\r\n    \r\n    /**\r\n     * @dev Checks if a DAP exists for a notice number\r\n     * @param noticeNumber The notice number to check\r\n     * @return True if a DAP exists, false otherwise\r\n     */\r\n    function dapExists(uint256 noticeNumber) external view returns (bool) {\r\n        return _noticeNumberToEvent[noticeNumber] != bytes32(0);\r\n    }\r\n} ",
  "sourcePath": "D:\\Devs\\repositories\\blockchain\\portnet-solution\\berexia-trade\\blockchain\\berexia-chain\\contracts\\DAPContract.sol",
  "compiler": {
    "name": "solc",
    "version": "0.8.17+commit.8df45f5f.Emscripten.clang"
  },
  "schemaVersion": "3.4.16",
  "updatedAt": "2025-04-04T08:47:50.518Z",
  "devdoc": {
    "details": "Contract for recording DAP (Demande d'Autorisation Pralable) events from RabbitMQ",
    "kind": "dev",
    "methods": {
      "constructor": {
        "details": "Constructor sets up the contract with ownership"
      },
      "dapExists(uint256)": {
        "details": "Checks if a DAP exists for a notice number",
        "params": {
          "noticeNumber": "The notice number to check"
        },
        "returns": {
          "_0": "True if a DAP exists, false otherwise"
        }
      },
      "getCallNumberEvents(string)": {
        "details": "Gets all event IDs for a call number",
        "params": {
          "callNumber": "The call number to look up"
        },
        "returns": {
          "_0": "An array of event IDs"
        }
      },
      "getDAPByNoticeNumber(uint256)": {
        "details": "Gets a DAP by notice number",
        "params": {
          "noticeNumber": "The notice number to look up"
        },
        "returns": {
          "callNumber": "Call number associated with the notice",
          "operatorName": "Name of the operator",
          "portCode": "Code of the port",
          "portName": "Name of the port",
          "requestDate": "Time when the request was made",
          "shipName": "Name of the ship",
          "status": "Current status"
        }
      },
      "getEventId()": {
        "details": "Returns the event ID",
        "returns": {
          "_0": "The unique identifier for the event"
        }
      },
      "getPortCodeEvents(string)": {
        "details": "Gets all event IDs for a port code",
        "params": {
          "portCode": "The port code to look up"
        },
        "returns": {
          "_0": "An array of event IDs"
        }
      },
      "getRecorder()": {
        "details": "Returns the address that recorded this event",
        "returns": {
          "_0": "The recorder's address"
        }
      },
      "getStatus()": {
        "details": "Returns the status of the event",
        "returns": {
          "_0": "The status string"
        }
      },
      "getTimestamp()": {
        "details": "Returns the timestamp when the event was recorded on chain",
        "returns": {
          "_0": "The timestamp"
        }
      },
      "owner()": {
        "details": "Returns the address of the current owner."
      },
      "recordDAP(uint256,string,string,string,string,string,string,uint256)": {
        "details": "Records a new DAP event on the blockchain",
        "params": {
          "callNumber": "Port call number associated with the notice",
          "noticeNumber": "Unique identifier for the notice",
          "operatorName": "Name of the ship operator",
          "portCode": "Code of the port",
          "portName": "Name of the port",
          "requestDate": "Time when the request was made (Unix timestamp)",
          "shipName": "Name of the ship",
          "status": "Current status of the DAP (e.g., \"PENDING\", \"APPROVED\", \"REJECTED\")"
        },
        "returns": {
          "_0": "The generated event ID"
        }
      },
      "renounceOwnership()": {
        "details": "Leaves the contract without owner. It will not be possible to call `onlyOwner` functions anymore. Can only be called by the current owner. NOTE: Renouncing ownership will leave the contract without an owner, thereby removing any functionality that is only available to the owner."
      },
      "transferOwnership(address)": {
        "details": "Transfers ownership of the contract to a new account (`newOwner`). Can only be called by the current owner."
      },
      "updateDAPStatus(uint256,string)": {
        "details": "Updates an existing DAP's status",
        "params": {
          "newStatus": "New status of the DAP",
          "noticeNumber": "The notice number of the DAP to update"
        }
      }
    },
    "title": "DAPContract",
    "version": 1
  },
  "userdoc": {
    "kind": "user",
    "methods": {},
    "version": 1
  }
}