{
  "contractName": "PortnetContractFactory",
  "abi": [
    {
      "inputs": [],
      "stateMutability": "nonpayable",
      "type": "constructor"
    },
    {
      "anonymous": false,
      "inputs": [
        {
          "indexed": true,
          "internalType": "address",
          "name": "contractAddress",
          "type": "address"
        },
        {
          "indexed": false,
          "internalType": "uint256",
          "name": "deployedAt",
          "type": "uint256"
        }
      ],
      "name": "DAPContractDeployed",
      "type": "event"
    },
    {
      "anonymous": false,
      "inputs": [
        {
          "indexed": true,
          "internalType": "address",
          "name": "previousOwner",
          "type": "address"
        },
        {
          "indexed": true,
          "internalType": "address",
          "name": "newOwner",
          "type": "address"
        }
      ],
      "name": "OwnershipTransferred",
      "type": "event"
    },
    {
      "anonymous": false,
      "inputs": [
        {
          "indexed": true,
          "internalType": "address",
          "name": "contractAddress",
          "type": "address"
        },
        {
          "indexed": false,
          "internalType": "uint256",
          "name": "deployedAt",
          "type": "uint256"
        }
      ],
      "name": "ShipArrivalContractDeployed",
      "type": "event"
    },
    {
      "inputs": [],
      "name": "dapContract",
      "outputs": [
        {
          "internalType": "address",
          "name": "",
          "type": "address"
        }
      ],
      "stateMutability": "view",
      "type": "function"
    },
    {
      "inputs": [],
      "name": "owner",
      "outputs": [
        {
          "internalType": "address",
          "name": "",
          "type": "address"
        }
      ],
      "stateMutability": "view",
      "type": "function"
    },
    {
      "inputs": [],
      "name": "renounceOwnership",
      "outputs": [],
      "stateMutability": "nonpayable",
      "type": "function"
    },
    {
      "inputs": [],
      "name": "shipArrivalContract",
      "outputs": [
        {
          "internalType": "address",
          "name": "",
          "type": "address"
        }
      ],
      "stateMutability": "view",
      "type": "function"
    },
    {
      "inputs": [
        {
          "internalType": "address",
          "name": "newOwner",
          "type": "address"
        }
      ],
      "name": "transferOwnership",
      "outputs": [],
      "stateMutability": "nonpayable",
      "type": "function"
    },
    {
      "inputs": [],
      "name": "deployShipArrivalContract",
      "outputs": [
        {
          "internalType": "address",
          "name": "",
          "type": "address"
        }
      ],
      "stateMutability": "nonpayable",
      "type": "function"
    },
    {
      "inputs": [],
      "name": "deployDAPContract",
      "outputs": [
        {
          "internalType": "address",
          "name": "",
          "type": "address"
        }
      ],
      "stateMutability": "nonpayable",
      "type": "function"
    },
    {
      "inputs": [],
      "name": "deployAllContracts",
      "outputs": [
        {
          "internalType": "address",
          "name": "shipArrivalAddress",
          "type": "address"
        },
        {
          "internalType": "address",
          "name": "dapAddress",
          "type": "address"
        }
      ],
      "stateMutability": "nonpayable",
      "type": "function"
    }
  ],
  "bytecode": "0x608060405234801561001057600080fd5b503361001b81610021565b50610071565b600080546001600160a01b038381166001600160a01b0319831681178455604051919092169283917f8be0079c531659141344cd1fd0a4f28419497f9722a3daafe3b4186f6b6457e09190a35050565b612d0f806100806000396000f3fe608060405234801561001057600080fd5b50600436106100885760003560e01c8063ab83a8971161005b578063ab83a897146100e0578063de0f3b03146100f3578063e188c4ea146100fb578063f2fde38b1461012357600080fd5b806335369f721461008d578063715018a6146100bd57806371816b16146100c75780638da5cb5b146100cf575b600080fd5b6002546100a0906001600160a01b031681565b6040516001600160a01b0390911681526020015b60405180910390f35b6100c5610136565b005b6100a0610184565b6000546001600160a01b03166100a0565b6001546100a0906001600160a01b031681565b6100a061029f565b6101036103b1565b604080516001600160a01b039384168152929091166020830152016100b4565b6100c5610131366004610519565b610405565b336101496000546001600160a01b031690565b6001600160a01b0316146101785760405162461bcd60e51b815260040161016f90610549565b60405180910390fd5b61018260006104af565b565b6000336101996000546001600160a01b031690565b6001600160a01b0316146101bf5760405162461bcd60e51b815260040161016f90610549565b60006040516101cd906104ff565b604051809103906000f0801580156101e9573d6000803e3d6000fd5b5060405163f2fde38b60e01b81523360048201529091506001600160a01b0382169063f2fde38b90602401600060405180830381600087803b15801561022e57600080fd5b505af1158015610242573d6000803e3d6000fd5b5050600180546001600160a01b0319166001600160a01b0385169081179091556040514281529092507fd228d60199b759452addff0068d99b019d2b122e334da8dcb8ddc379d8e1428b91506020015b60405180910390a2905090565b6000336102b46000546001600160a01b031690565b6001600160a01b0316146102da5760405162461bcd60e51b815260040161016f90610549565b60006040516102e89061050c565b604051809103906000f080158015610304573d6000803e3d6000fd5b5060405163f2fde38b60e01b81523360048201529091506001600160a01b0382169063f2fde38b90602401600060405180830381600087803b15801561034957600080fd5b505af115801561035d573d6000803e3d6000fd5b5050600280546001600160a01b0319166001600160a01b0385169081179091556040514281529092507f54d65ded813ae7c168827045f2ace0918fab33e0479e51dcf4f7cc7ccb702b3b9150602001610292565b600080336103c76000546001600160a01b031690565b6001600160a01b0316146103ed5760405162461bcd60e51b815260040161016f90610549565b6103f5610184565b91506103ff61029f565b90509091565b336104186000546001600160a01b031690565b6001600160a01b03161461043e5760405162461bcd60e51b815260040161016f90610549565b6001600160a01b0381166104a35760405162461bcd60e51b815260206004820152602660248201527f4f776e61626c653a206e6577206f776e657220697320746865207a65726f206160448201526564647265737360d01b606482015260840161016f565b6104ac816104af565b50565b600080546001600160a01b038381166001600160a01b0319831681178455604051919092169283917f8be0079c531659141344cd1fd0a4f28419497f9722a3daafe3b4186f6b6457e09190a35050565b6112598061057f83390190565b611502806117d883390190565b60006020828403121561052b57600080fd5b81356001600160a01b038116811461054257600080fd5b9392505050565b6020808252818101527f4f776e61626c653a2063616c6c6572206973206e6f7420746865206f776e657260408201526060019056fe608060405234801561001057600080fd5b506000805542600155600380546001600160a01b031916339081179091556100378161003d565b5061008f565b600480546001600160a01b038381166001600160a01b0319831681179093556040519116919082907f8be0079c531659141344cd1fd0a4f28419497f9722a3daafe3b4186f6b6457e090600090a35050565b6111bb8061009e6000396000f3fe608060405234801561001057600080fd5b50600436106100cf5760003560e01c80634e69d5601161008c5780638da5cb5b116100665780638da5cb5b146101a5578063b6c3afca146101ca578063d290a675146101db578063f2fde38b1461020157600080fd5b80634e69d560146101755780636d9f003f1461018a578063715018a61461019d57600080fd5b8063036775e7146100d4578063096a92a21461010f57806315b1c12b1461012f578063188ec35614610150578063357bc935146101585780634a17bbde1461016d575b600080fd5b6100fa6100e2366004610c97565b60009081526005602052604090206007015460ff1690565b60405190151581526020015b60405180910390f35b61012261011d366004610d53565b610214565b6040516101069190610d90565b61014261013d366004610dd4565b610284565b604051908152602001610106565b600154610142565b61016b610166366004610dd4565b610481565b005b600054610142565b61017d6105c9565b6040516101069190610efe565b610122610198366004610d53565b61065b565b61016b61066d565b6004546001600160a01b03165b6040516001600160a01b039091168152602001610106565b6003546001600160a01b03166101b2565b6101ee6101e9366004610c97565b6106b2565b6040516101069796959493929190610f18565b61016b61020f366004610f94565b610a72565b60606008826040516102269190610fbd565b908152604080519182900360209081018320805480830285018301909352828452919083018282801561027857602002820191906000526020600020905b815481526020019060010190808311610264575b50505050509050919050565b60008087426040516020016102a3929190918252602082015260400190565b60408051601f198184030181528282528051602091820120610100840183528b84528382018b81528484018b9052606085018a90526080850189905260a085018890524260c0860152600160e0860181905260008e8152600590945293909220845181559151909450839282019061031b9082611062565b50604082015160028201906103309082611062565b50606082015160038201906103459082611062565b506080820151600482019061035a9082611062565b5060a0820151600582019061036f9082611062565b5060c082015160068281019190915560e0909201516007909101805460ff19169115159190911790556040516103a6908a90610fbd565b9081526040519081900360209081018220805460018101825560009182529190200183905582906007906103db908b90610fbd565b9081526020016040518091039020819055506008866040516103fd9190610fbd565b90815260405160209181900382019020805460018101825560009182529190200182905561042a84610b1c565b610432610bfb565b7fbcde955e6f71950673537f858ba20c52481d039a2b72a9518f5dffd36c3dd7d98989898989894260405161046d9796959493929190610f18565b60405180910390a150979650505050505050565b336104946004546001600160a01b031690565b6001600160a01b0316146104c35760405162461bcd60e51b81526004016104ba90611122565b60405180910390fd5b60008681526005602052604090206007015460ff1661051d5760405162461bcd60e51b815260206004820152601660248201527514da1a5c08185c9c9a5d985b081b9bdd08199bdd5b9960521b60448201526064016104ba565b6000868152600560205260409020600181016105398782611062565b50600281016105488682611062565b50600381016105578582611062565b50600481016105668482611062565b50600581016105758382611062565b5042600682018190556040517fbcde955e6f71950673537f858ba20c52481d039a2b72a9518f5dffd36c3dd7d9916105b8918a918a918a918a918a918a91610f18565b60405180910390a150505050505050565b6060600280546105d890610fd9565b80601f016020809104026020016040519081016040528092919081815260200182805461060490610fd9565b80156106515780601f1061062657610100808354040283529160200191610651565b820191906000526020600020905b81548152906001019060200180831161063457829003601f168201915b5050505050905090565b60606006826040516102269190610fbd565b336106806004546001600160a01b031690565b6001600160a01b0316146106a65760405162461bcd60e51b81526004016104ba90611122565b6106b06000610c45565b565b6000818152600560205260408120600701546060908190819081908190869060ff166107195760405162461bcd60e51b815260206004820152601660248201527514da1a5c08185c9c9a5d985b081b9bdd08199bdd5b9960521b60448201526064016104ba565b6000600560008a8152602001908152602001600020604051806101000160405290816000820154815260200160018201805461075490610fd9565b80601f016020809104026020016040519081016040528092919081815260200182805461078090610fd9565b80156107cd5780601f106107a2576101008083540402835291602001916107cd565b820191906000526020600020905b8154815290600101906020018083116107b057829003601f168201915b505050505081526020016002820180546107e690610fd9565b80601f016020809104026020016040519081016040528092919081815260200182805461081290610fd9565b801561085f5780601f106108345761010080835404028352916020019161085f565b820191906000526020600020905b81548152906001019060200180831161084257829003601f168201915b5050505050815260200160038201805461087890610fd9565b80601f01602080910402602001604051908101604052809291908181526020018280546108a490610fd9565b80156108f15780601f106108c6576101008083540402835291602001916108f1565b820191906000526020600020905b8154815290600101906020018083116108d457829003601f168201915b5050505050815260200160048201805461090a90610fd9565b80601f016020809104026020016040519081016040528092919081815260200182805461093690610fd9565b80156109835780601f1061095857610100808354040283529160200191610983565b820191906000526020600020905b81548152906001019060200180831161096657829003601f168201915b5050505050815260200160058201805461099c90610fd9565b80601f01602080910402602001604051908101604052809291908181526020018280546109c890610fd9565b8015610a155780601f106109ea57610100808354040283529160200191610a15565b820191906000526020600020905b8154815290600101906020018083116109f857829003601f168201915b5050509183525050600682015460208083019190915260079092015460ff161515604091820152825191830151908301516060840151608085015160a086015160c090960151949f939e50919c509a509850919650945092505050565b33610a856004546001600160a01b031690565b6001600160a01b031614610aab5760405162461bcd60e51b81526004016104ba90611122565b6001600160a01b038116610b105760405162461bcd60e51b815260206004820152602660248201527f4f776e61626c653a206e6577206f776e657220697320746865207a65726f206160448201526564647265737360d01b60648201526084016104ba565b610b1981610c45565b50565b600060028054610b2b90610fd9565b80601f0160208091040260200160405190810160405280929190818152602001828054610b5790610fd9565b8015610ba45780601f10610b7957610100808354040283529160200191610ba4565b820191906000526020600020905b815481529060010190602001808311610b8757829003601f168201915b505050505090508160029081610bba9190611062565b506000547f8a979ee443e267bf0699140bdad48b1371e276c41b1181861cee23a8f8f326a68284604051610bef929190611157565b60405180910390a25050565b6003546000546001546040519081526001600160a01b03909216917f077c9a6b96e4352c25dd28e210601f1b36b9a93891e2b67fa6198c12232bfc949060200160405180910390a3565b600480546001600160a01b038381166001600160a01b0319831681179093556040519116919082907f8be0079c531659141344cd1fd0a4f28419497f9722a3daafe3b4186f6b6457e090600090a35050565b600060208284031215610ca957600080fd5b5035919050565b634e487b7160e01b600052604160045260246000fd5b600082601f830112610cd757600080fd5b813567ffffffffffffffff80821115610cf257610cf2610cb0565b604051601f8301601f19908116603f01168101908282118183101715610d1a57610d1a610cb0565b81604052838152866020858801011115610d3357600080fd5b836020870160208301376000602085830101528094505050505092915050565b600060208284031215610d6557600080fd5b813567ffffffffffffffff811115610d7c57600080fd5b610d8884828501610cc6565b949350505050565b6020808252825182820181905260009190848201906040850190845b81811015610dc857835183529284019291840191600101610dac565b50909695505050505050565b60008060008060008060c08789031215610ded57600080fd5b86359550602087013567ffffffffffffffff80821115610e0c57600080fd5b610e188a838b01610cc6565b96506040890135915080821115610e2e57600080fd5b610e3a8a838b01610cc6565b95506060890135915080821115610e5057600080fd5b610e5c8a838b01610cc6565b94506080890135915080821115610e7257600080fd5b610e7e8a838b01610cc6565b935060a0890135915080821115610e9457600080fd5b50610ea189828a01610cc6565b9150509295509295509295565b60005b83811015610ec9578181015183820152602001610eb1565b50506000910152565b60008151808452610eea816020860160208601610eae565b601f01601f19169290920160200192915050565b602081526000610f116020830184610ed2565b9392505050565b87815260e060208201526000610f3160e0830189610ed2565b8281036040840152610f438189610ed2565b90508281036060840152610f578188610ed2565b90508281036080840152610f6b8187610ed2565b905082810360a0840152610f7f8186610ed2565b9150508260c083015298975050505050505050565b600060208284031215610fa657600080fd5b81356001600160a01b0381168114610f1157600080fd5b60008251610fcf818460208701610eae565b9190910192915050565b600181811c90821680610fed57607f821691505b60208210810361100d57634e487b7160e01b600052602260045260246000fd5b50919050565b601f82111561105d57600081815260208120601f850160051c8101602086101561103a5750805b601f850160051c820191505b8181101561105957828155600101611046565b5050505b505050565b815167ffffffffffffffff81111561107c5761107c610cb0565b6110908161108a8454610fd9565b84611013565b602080601f8311600181146110c557600084156110ad5750858301515b600019600386901b1c1916600185901b178555611059565b600085815260208120601f198616915b828110156110f4578886015182559484019460019091019084016110d5565b50858210156111125787850151600019600388901b60f8161c191681555b5050505050600190811b01905550565b6020808252818101527f4f776e61626c653a2063616c6c6572206973206e6f7420746865206f776e6572604082015260600190565b60408152600061116a6040830185610ed2565b828103602084015261117c8185610ed2565b9594505050505056fea264697066735822122082d0b6d8afd461977742778488a5d290e11b5fd418748fa277c33a7876e9835f64736f6c63430008110033608060405234801561001057600080fd5b506000805542600155600380546001600160a01b031916339081179091556100378161003d565b5061008f565b600480546001600160a01b038381166001600160a01b0319831681179093556040519116919082907f8be0079c531659141344cd1fd0a4f28419497f9722a3daafe3b4186f6b6457e090600090a35050565b6114648061009e6000396000f3fe608060405234801561001057600080fd5b50600436106100cf5760003560e01c8063603eeb6a1161008c578063b6c3afca11610066578063b6c3afca146101c2578063e8e6be75146101d3578063f03b5d07146101e6578063f2fde38b146101f957600080fd5b8063603eeb6a14610161578063715018a6146101935780638da5cb5b1461019d57600080fd5b8063188ec356146100d4578063247c5ef1146100eb5780633a649fa01461011157806349b7e331146101315780634a17bbde146101445780634e69d5601461014c575b600080fd5b6001545b6040519081526020015b60405180910390f35b6100fe6100f9366004610d88565b61020c565b6040516100e29796959493929190610df1565b61012461011f366004610f40565b6105fb565b6040516100e29190610f7d565b61012461013f366004610f40565b61066b565b6000546100d8565b61015461067d565b6040516100e29190610fc1565b61018361016f366004610d88565b600090815260066020526040902054151590565b60405190151581526020016100e2565b61019b61070f565b005b6004546001600160a01b03165b6040516001600160a01b0390911681526020016100e2565b6003546001600160a01b03166101aa565b61019b6101e1366004610fdb565b610754565b6100d86101f4366004611022565b6108c4565b61019b61020736600461112c565b610b63565b600081815260066020526040812054606091829182918291829182918061024e5760405162461bcd60e51b815260040161024590611155565b60405180910390fd5b6000818152600560205260409020600781015460ff166102a55760405162461bcd60e51b8152602060048201526012602482015271111054081b9bdd081c9959da5cdd195c995960721b6044820152606401610245565b8060010181600201826003018360040184600501306001600160a01b0316634e69d5606040518163ffffffff1660e01b8152600401600060405180830381865afa1580156102f7573d6000803e3d6000fd5b505050506040513d6000823e601f3d908101601f1916820160405261031f9190810190611199565b866006015486805461033090611210565b80601f016020809104026020016040519081016040528092919081815260200182805461035c90611210565b80156103a95780601f1061037e576101008083540402835291602001916103a9565b820191906000526020600020905b81548152906001019060200180831161038c57829003601f168201915b505050505096508580546103bc90611210565b80601f01602080910402602001604051908101604052809291908181526020018280546103e890611210565b80156104355780601f1061040a57610100808354040283529160200191610435565b820191906000526020600020905b81548152906001019060200180831161041857829003601f168201915b5050505050955084805461044890611210565b80601f016020809104026020016040519081016040528092919081815260200182805461047490611210565b80156104c15780601f10610496576101008083540402835291602001916104c1565b820191906000526020600020905b8154815290600101906020018083116104a457829003601f168201915b505050505094508380546104d490611210565b80601f016020809104026020016040519081016040528092919081815260200182805461050090611210565b801561054d5780601f106105225761010080835404028352916020019161054d565b820191906000526020600020905b81548152906001019060200180831161053057829003601f168201915b5050505050935082805461056090611210565b80601f016020809104026020016040519081016040528092919081815260200182805461058c90611210565b80156105d95780601f106105ae576101008083540402835291602001916105d9565b820191906000526020600020905b8154815290600101906020018083116105bc57829003601f168201915b5050505050925098509850985098509850985098505050919395979092949650565b606060078260405161060d919061124a565b908152604080519182900360209081018320805480830285018301909352828452919083018282801561065f57602002820191906000526020600020905b81548152602001906001019080831161064b575b50505050509050919050565b606060088260405161060d919061124a565b60606002805461068c90611210565b80601f01602080910402602001604051908101604052809291908181526020018280546106b890611210565b80156107055780601f106106da57610100808354040283529160200191610705565b820191906000526020600020905b8154815290600101906020018083116106e857829003601f168201915b5050505050905090565b336107226004546001600160a01b031690565b6001600160a01b0316146107485760405162461bcd60e51b815260040161024590611266565b6107526000610c0d565b565b336107676004546001600160a01b031690565b6001600160a01b03161461078d5760405162461bcd60e51b815260040161024590611266565b600082815260066020526040902054806107b95760405162461bcd60e51b815260040161024590611155565b6000818152600560205260409020600781015460ff166108105760405162461bcd60e51b8152602060048201526012602482015271111054081b9bdd081c9959da5cdd195c995960721b6044820152606401610245565b6000306001600160a01b0316634e69d5606040518163ffffffff1660e01b8152600401600060405180830381865afa158015610850573d6000803e3d6000fd5b505050506040513d6000823e601f3d908101601f191682016040526108789190810190611199565b905061088384610c5f565b847f2854cc4e178e70e164bac6d4ef0e7777aaad55b93bbf3d26afd9c0ada363d00c82866040516108b592919061129b565b60405180910390a25050505050565b6000336108d96004546001600160a01b031690565b6001600160a01b0316146108ff5760405162461bcd60e51b815260040161024590611266565b6000894260405160200161091d929190918252602082015260400190565b60408051601f19818403018152918152815160209283012060008d81526006909352912054909150156109a95760405162461bcd60e51b815260206004820152602e60248201527f44415020776974682074686973206e6f74696365206e756d62657220616c726560448201526d18591e481c9959da5cdd195c995960921b6064820152608401610245565b60408051610100810182528b815260208082018c81528284018c9052606083018b9052608083018a905260a0830189905260c08301879052600160e0840181905260008681526005909352939091208251815590519192839290820190610a10908261130f565b5060408201516002820190610a25908261130f565b5060608201516003820190610a3a908261130f565b5060808201516004820190610a4f908261130f565b5060a08201516005820190610a64908261130f565b5060c082015160068281019190915560e0909201516007918201805460ff191691151591909117905560008d81526020929092526040918290208490559051610aae908c9061124a565b90815260405190819003602090810182208054600181018255600091825291902001839055600890610ae1908a9061124a565b908152604051602091819003820190208054600181018255600091825291902001829055610b0e85610c5f565b610b16610d3e565b7f08fd1a88ea7064319aff414b580139aa5f3ee9190d23ff45c1b11c73260802378b8b8a8a8a604051610b4d9594939291906113cf565b60405180910390a1509998505050505050505050565b33610b766004546001600160a01b031690565b6001600160a01b031614610b9c5760405162461bcd60e51b815260040161024590611266565b6001600160a01b038116610c015760405162461bcd60e51b815260206004820152602660248201527f4f776e61626c653a206e6577206f776e657220697320746865207a65726f206160448201526564647265737360d01b6064820152608401610245565b610c0a81610c0d565b50565b600480546001600160a01b038381166001600160a01b0319831681179093556040519116919082907f8be0079c531659141344cd1fd0a4f28419497f9722a3daafe3b4186f6b6457e090600090a35050565b600060028054610c6e90611210565b80601f0160208091040260200160405190810160405280929190818152602001828054610c9a90611210565b8015610ce75780601f10610cbc57610100808354040283529160200191610ce7565b820191906000526020600020905b815481529060010190602001808311610cca57829003601f168201915b505050505090508160029081610cfd919061130f565b506000547f8a979ee443e267bf0699140bdad48b1371e276c41b1181861cee23a8f8f326a68284604051610d3292919061129b565b60405180910390a25050565b6003546000546001546040519081526001600160a01b03909216917f077c9a6b96e4352c25dd28e210601f1b36b9a93891e2b67fa6198c12232bfc949060200160405180910390a3565b600060208284031215610d9a57600080fd5b5035919050565b60005b83811015610dbc578181015183820152602001610da4565b50506000910152565b60008151808452610ddd816020860160208601610da1565b601f01601f19169290920160200192915050565b60e081526000610e0460e083018a610dc5565b8281036020840152610e16818a610dc5565b90508281036040840152610e2a8189610dc5565b90508281036060840152610e3e8188610dc5565b90508281036080840152610e528187610dc5565b905082810360a0840152610e668186610dc5565b9150508260c083015298975050505050505050565b634e487b7160e01b600052604160045260246000fd5b604051601f8201601f1916810167ffffffffffffffff81118282101715610eba57610eba610e7b565b604052919050565b600067ffffffffffffffff821115610edc57610edc610e7b565b50601f01601f191660200190565b600082601f830112610efb57600080fd5b8135610f0e610f0982610ec2565b610e91565b818152846020838601011115610f2357600080fd5b816020850160208301376000918101602001919091529392505050565b600060208284031215610f5257600080fd5b813567ffffffffffffffff811115610f6957600080fd5b610f7584828501610eea565b949350505050565b6020808252825182820181905260009190848201906040850190845b81811015610fb557835183529284019291840191600101610f99565b50909695505050505050565b602081526000610fd46020830184610dc5565b9392505050565b60008060408385031215610fee57600080fd5b82359150602083013567ffffffffffffffff81111561100c57600080fd5b61101885828601610eea565b9150509250929050565b600080600080600080600080610100898b03121561103f57600080fd5b88359750602089013567ffffffffffffffff8082111561105e57600080fd5b61106a8c838d01610eea565b985060408b013591508082111561108057600080fd5b61108c8c838d01610eea565b975060608b01359150808211156110a257600080fd5b6110ae8c838d01610eea565b965060808b01359150808211156110c457600080fd5b6110d08c838d01610eea565b955060a08b01359150808211156110e657600080fd5b6110f28c838d01610eea565b945060c08b013591508082111561110857600080fd5b506111158b828c01610eea565b92505060e089013590509295985092959890939650565b60006020828403121561113e57600080fd5b81356001600160a01b0381168114610fd457600080fd5b60208082526024908201527f444150206e6f7420666f756e6420666f722074686973206e6f74696365206e7560408201526336b132b960e11b606082015260800190565b6000602082840312156111ab57600080fd5b815167ffffffffffffffff8111156111c257600080fd5b8201601f810184136111d357600080fd5b80516111e1610f0982610ec2565b8181528560208385010111156111f657600080fd5b611207826020830160208601610da1565b95945050505050565b600181811c9082168061122457607f821691505b60208210810361124457634e487b7160e01b600052602260045260246000fd5b50919050565b6000825161125c818460208701610da1565b9190910192915050565b6020808252818101527f4f776e61626c653a2063616c6c6572206973206e6f7420746865206f776e6572604082015260600190565b6040815260006112ae6040830185610dc5565b82810360208401526112078185610dc5565b601f82111561130a57600081815260208120601f850160051c810160208610156112e75750805b601f850160051c820191505b81811015611306578281556001016112f3565b5050505b505050565b815167ffffffffffffffff81111561132957611329610e7b565b61133d816113378454611210565b846112c0565b602080601f831160018114611372576000841561135a5750858301515b600019600386901b1c1916600185901b178555611306565b600085815260208120601f198616915b828110156113a157888601518255948401946001909101908401611382565b50858210156113bf5787850151600019600388901b60f8161c191681555b5050505050600190811b01905550565b85815260a0602082015260006113e860a0830187610dc5565b82810360408401526113fa8187610dc5565b9050828103606084015261140e8186610dc5565b905082810360808401526114228185610dc5565b9897505050505050505056fea26469706673582212203c78a2323f359c8833a7a2d88dc547b2e4615c2c983f71a10ce50431646722a764736f6c63430008110033a26469706673582212201228601f2bc86ff5edeccc62424f559c863b4a9d2230b3decd680a729361d91b64736f6c63430008110033",
  "immutableReferences": {},
  "source": "// SPDX-License-Identifier: UNLICENSED\r\npragma solidity ^0.8.17;\r\n\r\nimport \"./ShipArrivalContract.sol\";\r\nimport \"./DAPContract.sol\";\r\nimport \"./access/Ownable.sol\";\r\n\r\n/**\r\n * @title PortnetContractFactory\r\n * @dev Factory contract to deploy and manage ShipArrival and DAP contracts\r\n */\r\ncontract PortnetContractFactory is Ownable {\r\n    // Events\r\n    event ShipArrivalContractDeployed(address indexed contractAddress, uint256 deployedAt);\r\n    event DAPContractDeployed(address indexed contractAddress, uint256 deployedAt);\r\n    \r\n    // Track deployed contracts\r\n    address public shipArrivalContract;\r\n    address public dapContract;\r\n    \r\n    /**\r\n     * @dev Constructor sets up the factory with ownership\r\n     */\r\n    constructor() Ownable(msg.sender) {\r\n        // Initialize factory\r\n    }\r\n    \r\n    /**\r\n     * @dev Deploys a new ShipArrivalContract\r\n     * @return The address of the deployed contract\r\n     */\r\n    function deployShipArrivalContract() public onlyOwner returns (address) {\r\n        ShipArrivalContract newContract = new ShipArrivalContract();\r\n        \r\n        // Transfer ownership of the contract to the caller\r\n        newContract.transferOwnership(msg.sender);\r\n        \r\n        // Update the address of the deployed contract\r\n        shipArrivalContract = address(newContract);\r\n        \r\n        // Emit event\r\n        emit ShipArrivalContractDeployed(address(newContract), block.timestamp);\r\n        \r\n        return address(newContract);\r\n    }\r\n    \r\n    /**\r\n     * @dev Deploys a new DAPContract\r\n     * @return The address of the deployed contract\r\n     */\r\n    function deployDAPContract() public onlyOwner returns (address) {\r\n        DAPContract newContract = new DAPContract();\r\n        \r\n        // Transfer ownership of the contract to the caller\r\n        newContract.transferOwnership(msg.sender);\r\n        \r\n        // Update the address of the deployed contract\r\n        dapContract = address(newContract);\r\n        \r\n        // Emit event\r\n        emit DAPContractDeployed(address(newContract), block.timestamp);\r\n        \r\n        return address(newContract);\r\n    }\r\n    \r\n    /**\r\n     * @dev Deploys both ShipArrival and DAP contracts\r\n     * @return shipArrivalAddress The address of the deployed ShipArrivalContract\r\n     * @return dapAddress The address of the deployed DAPContract\r\n     */\r\n    function deployAllContracts() external onlyOwner returns (address shipArrivalAddress, address dapAddress) {\r\n        shipArrivalAddress = deployShipArrivalContract();\r\n        dapAddress = deployDAPContract();\r\n        \r\n        return (shipArrivalAddress, dapAddress);\r\n    }\r\n} ",
  "sourcePath": "D:\\Devs\\repositories\\blockchain\\portnet-solution\\berexia-trade\\blockchain\\berexia-chain\\contracts\\PortnetContractFactory.sol",
  "compiler": {
    "name": "solc",
    "version": "0.8.17+commit.8df45f5f.Emscripten.clang"
  },
  "schemaVersion": "3.4.16",
  "updatedAt": "2025-04-04T08:47:50.523Z",
  "devdoc": {
    "details": "Factory contract to deploy and manage ShipArrival and DAP contracts",
    "kind": "dev",
    "methods": {
      "constructor": {
        "details": "Constructor sets up the factory with ownership"
      },
      "deployAllContracts()": {
        "details": "Deploys both ShipArrival and DAP contracts",
        "returns": {
          "dapAddress": "The address of the deployed DAPContract",
          "shipArrivalAddress": "The address of the deployed ShipArrivalContract"
        }
      },
      "deployDAPContract()": {
        "details": "Deploys a new DAPContract",
        "returns": {
          "_0": "The address of the deployed contract"
        }
      },
      "deployShipArrivalContract()": {
        "details": "Deploys a new ShipArrivalContract",
        "returns": {
          "_0": "The address of the deployed contract"
        }
      },
      "owner()": {
        "details": "Returns the address of the current owner."
      },
      "renounceOwnership()": {
        "details": "Leaves the contract without owner. It will not be possible to call `onlyOwner` functions anymore. Can only be called by the current owner. NOTE: Renouncing ownership will leave the contract without an owner, thereby removing any functionality that is only available to the owner."
      },
      "transferOwnership(address)": {
        "details": "Transfers ownership of the contract to a new account (`newOwner`). Can only be called by the current owner."
      }
    },
    "title": "PortnetContractFactory",
    "version": 1
  },
  "userdoc": {
    "kind": "user",
    "methods": {},
    "version": 1
  }
}