{
  "contractName": "ShipArrivalContract",
  "abi": [
    {
      "inputs": [],
      "stateMutability": "nonpayable",
      "type": "constructor"
    },
    {
      "anonymous": false,
      "inputs": [
        {
          "indexed": true,
          "internalType": "bytes32",
          "name": "eventId",
          "type": "bytes32"
        },
        {
          "indexed": true,
          "internalType": "address",
          "name": "recorder",
          "type": "address"
        },
        {
          "indexed": false,
          "internalType": "uint256",
          "name": "timestamp",
          "type": "uint256"
        }
      ],
      "name": "EventRecorded",
      "type": "event"
    },
    {
      "anonymous": false,
      "inputs": [
        {
          "indexed": true,
          "internalType": "address",
          "name": "previousOwner",
          "type": "address"
        },
        {
          "indexed": true,
          "internalType": "address",
          "name": "newOwner",
          "type": "address"
        }
      ],
      "name": "OwnershipTransferred",
      "type": "event"
    },
    {
      "anonymous": false,
      "inputs": [
        {
          "indexed": false,
          "internalType": "uint256",
          "name": "numeroAvis",
          "type": "uint256"
        },
        {
          "indexed": false,
          "internalType": "string",
          "name": "numeroEscale",
          "type": "string"
        },
        {
          "indexed": false,
          "internalType": "string",
          "name": "nomPort",
          "type": "string"
        },
        {
          "indexed": false,
          "internalType": "string",
          "name": "codePort",
          "type": "string"
        },
        {
          "indexed": false,
          "internalType": "string",
          "name": "nomNavire",
          "type": "string"
        },
        {
          "indexed": false,
          "internalType": "string",
          "name": "etat",
          "type": "string"
        },
        {
          "indexed": false,
          "internalType": "uint256",
          "name": "timestamp",
          "type": "uint256"
        }
      ],
      "name": "ShipArrivalRecorded",
      "type": "event"
    },
    {
      "anonymous": false,
      "inputs": [
        {
          "indexed": true,
          "internalType": "bytes32",
          "name": "eventId",
          "type": "bytes32"
        },
        {
          "indexed": false,
          "internalType": "uint256",
          "name": "expectedArrivalTime",
          "type": "uint256"
        },
        {
          "indexed": false,
          "internalType": "uint256",
          "name": "actualArrivalTime",
          "type": "uint256"
        }
      ],
      "name": "ShipArrivalTimeUpdated",
      "type": "event"
    },
    {
      "anonymous": false,
      "inputs": [
        {
          "indexed": true,
          "internalType": "bytes32",
          "name": "eventId",
          "type": "bytes32"
        },
        {
          "indexed": false,
          "internalType": "string",
          "name": "oldStatus",
          "type": "string"
        },
        {
          "indexed": false,
          "internalType": "string",
          "name": "newStatus",
          "type": "string"
        }
      ],
      "name": "StatusUpdated",
      "type": "event"
    },
    {
      "inputs": [],
      "name": "getEventId",
      "outputs": [
        {
          "internalType": "bytes32",
          "name": "",
          "type": "bytes32"
        }
      ],
      "stateMutability": "view",
      "type": "function"
    },
    {
      "inputs": [],
      "name": "getRecorder",
      "outputs": [
        {
          "internalType": "address",
          "name": "",
          "type": "address"
        }
      ],
      "stateMutability": "view",
      "type": "function"
    },
    {
      "inputs": [],
      "name": "getStatus",
      "outputs": [
        {
          "internalType": "string",
          "name": "",
          "type": "string"
        }
      ],
      "stateMutability": "view",
      "type": "function"
    },
    {
      "inputs": [],
      "name": "getTimestamp",
      "outputs": [
        {
          "internalType": "uint256",
          "name": "",
          "type": "uint256"
        }
      ],
      "stateMutability": "view",
      "type": "function"
    },
    {
      "inputs": [],
      "name": "owner",
      "outputs": [
        {
          "internalType": "address",
          "name": "",
          "type": "address"
        }
      ],
      "stateMutability": "view",
      "type": "function"
    },
    {
      "inputs": [],
      "name": "renounceOwnership",
      "outputs": [],
      "stateMutability": "nonpayable",
      "type": "function"
    },
    {
      "inputs": [
        {
          "internalType": "address",
          "name": "newOwner",
          "type": "address"
        }
      ],
      "name": "transferOwnership",
      "outputs": [],
      "stateMutability": "nonpayable",
      "type": "function"
    },
    {
      "inputs": [
        {
          "internalType": "uint256",
          "name": "numeroAvis",
          "type": "uint256"
        },
        {
          "internalType": "string",
          "name": "numeroEscale",
          "type": "string"
        },
        {
          "internalType": "string",
          "name": "nomPort",
          "type": "string"
        },
        {
          "internalType": "string",
          "name": "codePort",
          "type": "string"
        },
        {
          "internalType": "string",
          "name": "nomNavire",
          "type": "string"
        },
        {
          "internalType": "string",
          "name": "etat",
          "type": "string"
        }
      ],
      "name": "recordShipArrival",
      "outputs": [
        {
          "internalType": "bytes32",
          "name": "",
          "type": "bytes32"
        }
      ],
      "stateMutability": "nonpayable",
      "type": "function"
    },
    {
      "inputs": [
        {
          "internalType": "uint256",
          "name": "_numeroAvis",
          "type": "uint256"
        },
        {
          "internalType": "string",
          "name": "_numeroEscale",
          "type": "string"
        },
        {
          "internalType": "string",
          "name": "_nomPort",
          "type": "string"
        },
        {
          "internalType": "string",
          "name": "_codePort",
          "type": "string"
        },
        {
          "internalType": "string",
          "name": "_nomNavire",
          "type": "string"
        },
        {
          "internalType": "string",
          "name": "_etat",
          "type": "string"
        }
      ],
      "name": "updateShipArrival",
      "outputs": [],
      "stateMutability": "nonpayable",
      "type": "function"
    },
    {
      "inputs": [
        {
          "internalType": "uint256",
          "name": "_numeroAvis",
          "type": "uint256"
        }
      ],
      "name": "getShipArrival",
      "outputs": [
        {
          "internalType": "uint256",
          "name": "",
          "type": "uint256"
        },
        {
          "internalType": "string",
          "name": "",
          "type": "string"
        },
        {
          "internalType": "string",
          "name": "",
          "type": "string"
        },
        {
          "internalType": "string",
          "name": "",
          "type": "string"
        },
        {
          "internalType": "string",
          "name": "",
          "type": "string"
        },
        {
          "internalType": "string",
          "name": "",
          "type": "string"
        },
        {
          "internalType": "uint256",
          "name": "",
          "type": "uint256"
        }
      ],
      "stateMutability": "view",
      "type": "function"
    },
    {
      "inputs": [
        {
          "internalType": "string",
          "name": "shipId",
          "type": "string"
        }
      ],
      "name": "getShipEvents",
      "outputs": [
        {
          "internalType": "bytes32[]",
          "name": "",
          "type": "bytes32[]"
        }
      ],
      "stateMutability": "view",
      "type": "function"
    },
    {
      "inputs": [
        {
          "internalType": "string",
          "name": "portId",
          "type": "string"
        }
      ],
      "name": "getPortEvents",
      "outputs": [
        {
          "internalType": "bytes32[]",
          "name": "",
          "type": "bytes32[]"
        }
      ],
      "stateMutability": "view",
      "type": "function"
    },
    {
      "inputs": [
        {
          "internalType": "uint256",
          "name": "_numeroAvis",
          "type": "uint256"
        }
      ],
      "name": "shipArrivalExists",
      "outputs": [
        {
          "internalType": "bool",
          "name": "",
          "type": "bool"
        }
      ],
      "stateMutability": "view",
      "type": "function"
    }
  ],
  "bytecode": "0x608060405234801561001057600080fd5b506000805542600155600380546001600160a01b031916339081179091556100378161003d565b5061008f565b600480546001600160a01b038381166001600160a01b0319831681179093556040519116919082907f8be0079c531659141344cd1fd0a4f28419497f9722a3daafe3b4186f6b6457e090600090a35050565b6111bb8061009e6000396000f3fe608060405234801561001057600080fd5b50600436106100cf5760003560e01c80634e69d5601161008c5780638da5cb5b116100665780638da5cb5b146101a5578063b6c3afca146101ca578063d290a675146101db578063f2fde38b1461020157600080fd5b80634e69d560146101755780636d9f003f1461018a578063715018a61461019d57600080fd5b8063036775e7146100d4578063096a92a21461010f57806315b1c12b1461012f578063188ec35614610150578063357bc935146101585780634a17bbde1461016d575b600080fd5b6100fa6100e2366004610c97565b60009081526005602052604090206007015460ff1690565b60405190151581526020015b60405180910390f35b61012261011d366004610d53565b610214565b6040516101069190610d90565b61014261013d366004610dd4565b610284565b604051908152602001610106565b600154610142565b61016b610166366004610dd4565b610481565b005b600054610142565b61017d6105c9565b6040516101069190610efe565b610122610198366004610d53565b61065b565b61016b61066d565b6004546001600160a01b03165b6040516001600160a01b039091168152602001610106565b6003546001600160a01b03166101b2565b6101ee6101e9366004610c97565b6106b2565b6040516101069796959493929190610f18565b61016b61020f366004610f94565b610a72565b60606008826040516102269190610fbd565b908152604080519182900360209081018320805480830285018301909352828452919083018282801561027857602002820191906000526020600020905b815481526020019060010190808311610264575b50505050509050919050565b60008087426040516020016102a3929190918252602082015260400190565b60408051601f198184030181528282528051602091820120610100840183528b84528382018b81528484018b9052606085018a90526080850189905260a085018890524260c0860152600160e0860181905260008e8152600590945293909220845181559151909450839282019061031b9082611062565b50604082015160028201906103309082611062565b50606082015160038201906103459082611062565b506080820151600482019061035a9082611062565b5060a0820151600582019061036f9082611062565b5060c082015160068281019190915560e0909201516007909101805460ff19169115159190911790556040516103a6908a90610fbd565b9081526040519081900360209081018220805460018101825560009182529190200183905582906007906103db908b90610fbd565b9081526020016040518091039020819055506008866040516103fd9190610fbd565b90815260405160209181900382019020805460018101825560009182529190200182905561042a84610b1c565b610432610bfb565b7fbcde955e6f71950673537f858ba20c52481d039a2b72a9518f5dffd36c3dd7d98989898989894260405161046d9796959493929190610f18565b60405180910390a150979650505050505050565b336104946004546001600160a01b031690565b6001600160a01b0316146104c35760405162461bcd60e51b81526004016104ba90611122565b60405180910390fd5b60008681526005602052604090206007015460ff1661051d5760405162461bcd60e51b815260206004820152601660248201527514da1a5c08185c9c9a5d985b081b9bdd08199bdd5b9960521b60448201526064016104ba565b6000868152600560205260409020600181016105398782611062565b50600281016105488682611062565b50600381016105578582611062565b50600481016105668482611062565b50600581016105758382611062565b5042600682018190556040517fbcde955e6f71950673537f858ba20c52481d039a2b72a9518f5dffd36c3dd7d9916105b8918a918a918a918a918a918a91610f18565b60405180910390a150505050505050565b6060600280546105d890610fd9565b80601f016020809104026020016040519081016040528092919081815260200182805461060490610fd9565b80156106515780601f1061062657610100808354040283529160200191610651565b820191906000526020600020905b81548152906001019060200180831161063457829003601f168201915b5050505050905090565b60606006826040516102269190610fbd565b336106806004546001600160a01b031690565b6001600160a01b0316146106a65760405162461bcd60e51b81526004016104ba90611122565b6106b06000610c45565b565b6000818152600560205260408120600701546060908190819081908190869060ff166107195760405162461bcd60e51b815260206004820152601660248201527514da1a5c08185c9c9a5d985b081b9bdd08199bdd5b9960521b60448201526064016104ba565b6000600560008a8152602001908152602001600020604051806101000160405290816000820154815260200160018201805461075490610fd9565b80601f016020809104026020016040519081016040528092919081815260200182805461078090610fd9565b80156107cd5780601f106107a2576101008083540402835291602001916107cd565b820191906000526020600020905b8154815290600101906020018083116107b057829003601f168201915b505050505081526020016002820180546107e690610fd9565b80601f016020809104026020016040519081016040528092919081815260200182805461081290610fd9565b801561085f5780601f106108345761010080835404028352916020019161085f565b820191906000526020600020905b81548152906001019060200180831161084257829003601f168201915b5050505050815260200160038201805461087890610fd9565b80601f01602080910402602001604051908101604052809291908181526020018280546108a490610fd9565b80156108f15780601f106108c6576101008083540402835291602001916108f1565b820191906000526020600020905b8154815290600101906020018083116108d457829003601f168201915b5050505050815260200160048201805461090a90610fd9565b80601f016020809104026020016040519081016040528092919081815260200182805461093690610fd9565b80156109835780601f1061095857610100808354040283529160200191610983565b820191906000526020600020905b81548152906001019060200180831161096657829003601f168201915b5050505050815260200160058201805461099c90610fd9565b80601f01602080910402602001604051908101604052809291908181526020018280546109c890610fd9565b8015610a155780601f106109ea57610100808354040283529160200191610a15565b820191906000526020600020905b8154815290600101906020018083116109f857829003601f168201915b5050509183525050600682015460208083019190915260079092015460ff161515604091820152825191830151908301516060840151608085015160a086015160c090960151949f939e50919c509a509850919650945092505050565b33610a856004546001600160a01b031690565b6001600160a01b031614610aab5760405162461bcd60e51b81526004016104ba90611122565b6001600160a01b038116610b105760405162461bcd60e51b815260206004820152602660248201527f4f776e61626c653a206e6577206f776e657220697320746865207a65726f206160448201526564647265737360d01b60648201526084016104ba565b610b1981610c45565b50565b600060028054610b2b90610fd9565b80601f0160208091040260200160405190810160405280929190818152602001828054610b5790610fd9565b8015610ba45780601f10610b7957610100808354040283529160200191610ba4565b820191906000526020600020905b815481529060010190602001808311610b8757829003601f168201915b505050505090508160029081610bba9190611062565b506000547f8a979ee443e267bf0699140bdad48b1371e276c41b1181861cee23a8f8f326a68284604051610bef929190611157565b60405180910390a25050565b6003546000546001546040519081526001600160a01b03909216917f077c9a6b96e4352c25dd28e210601f1b36b9a93891e2b67fa6198c12232bfc949060200160405180910390a3565b600480546001600160a01b038381166001600160a01b0319831681179093556040519116919082907f8be0079c531659141344cd1fd0a4f28419497f9722a3daafe3b4186f6b6457e090600090a35050565b600060208284031215610ca957600080fd5b5035919050565b634e487b7160e01b600052604160045260246000fd5b600082601f830112610cd757600080fd5b813567ffffffffffffffff80821115610cf257610cf2610cb0565b604051601f8301601f19908116603f01168101908282118183101715610d1a57610d1a610cb0565b81604052838152866020858801011115610d3357600080fd5b836020870160208301376000602085830101528094505050505092915050565b600060208284031215610d6557600080fd5b813567ffffffffffffffff811115610d7c57600080fd5b610d8884828501610cc6565b949350505050565b6020808252825182820181905260009190848201906040850190845b81811015610dc857835183529284019291840191600101610dac565b50909695505050505050565b60008060008060008060c08789031215610ded57600080fd5b86359550602087013567ffffffffffffffff80821115610e0c57600080fd5b610e188a838b01610cc6565b96506040890135915080821115610e2e57600080fd5b610e3a8a838b01610cc6565b95506060890135915080821115610e5057600080fd5b610e5c8a838b01610cc6565b94506080890135915080821115610e7257600080fd5b610e7e8a838b01610cc6565b935060a0890135915080821115610e9457600080fd5b50610ea189828a01610cc6565b9150509295509295509295565b60005b83811015610ec9578181015183820152602001610eb1565b50506000910152565b60008151808452610eea816020860160208601610eae565b601f01601f19169290920160200192915050565b602081526000610f116020830184610ed2565b9392505050565b87815260e060208201526000610f3160e0830189610ed2565b8281036040840152610f438189610ed2565b90508281036060840152610f578188610ed2565b90508281036080840152610f6b8187610ed2565b905082810360a0840152610f7f8186610ed2565b9150508260c083015298975050505050505050565b600060208284031215610fa657600080fd5b81356001600160a01b0381168114610f1157600080fd5b60008251610fcf818460208701610eae565b9190910192915050565b600181811c90821680610fed57607f821691505b60208210810361100d57634e487b7160e01b600052602260045260246000fd5b50919050565b601f82111561105d57600081815260208120601f850160051c8101602086101561103a5750805b601f850160051c820191505b8181101561105957828155600101611046565b5050505b505050565b815167ffffffffffffffff81111561107c5761107c610cb0565b6110908161108a8454610fd9565b84611013565b602080601f8311600181146110c557600084156110ad5750858301515b600019600386901b1c1916600185901b178555611059565b600085815260208120601f198616915b828110156110f4578886015182559484019460019091019084016110d5565b50858210156111125787850151600019600388901b60f8161c191681555b5050505050600190811b01905550565b6020808252818101527f4f776e61626c653a2063616c6c6572206973206e6f7420746865206f776e6572604082015260600190565b60408152600061116a6040830185610ed2565b828103602084015261117c8185610ed2565b9594505050505056fea264697066735822122082d0b6d8afd461977742778488a5d290e11b5fd418748fa277c33a7876e9835f64736f6c63430008110033",
  "immutableReferences": {},
  "source": "// SPDX-License-Identifier: UNLICENSED\npragma solidity ^0.8.17;\n\nimport \"./PortnetEventBase.sol\";\nimport \"./access/Ownable.sol\";\n\n/**\n * @title ShipArrivalContract\n * @dev Contract for recording ship arrival events from RabbitMQ\n */\ncontract ShipArrivalContract is PortnetEventBase, Ownable {\n    // Events specific to ship arrivals\n    event ShipArrivalRecorded(\n        uint256 numeroAvis,\n        string numeroEscale,\n        string nomPort,\n        string codePort,\n        string nomNavire,\n        string etat,\n        uint256 timestamp\n    );\n    \n    event ShipArrivalTimeUpdated(\n        bytes32 indexed eventId,\n        uint256 expectedArrivalTime,\n        uint256 actualArrivalTime\n    );\n    \n    // Ship arrival specific properties\n    struct ShipArrival {\n        uint256 numeroAvis;\n        string numeroEscale;\n        string nomPort;\n        string codePort;\n        string nomNavire;\n        string etat;\n        uint256 timestamp;\n        bool exists;\n    }\n    \n    // Mapping to store all ship arrivals by their event ID\n    mapping(uint256 => ShipArrival) private shipArrivals;\n    \n    // Mapping to track ship IDs to event IDs for quick lookup\n    mapping(string => bytes32[]) private _shipIdToEvents;\n    \n    // Mapping to track call IDs to event IDs for quick lookup\n    mapping(string => bytes32) private _callIdToEvent;\n    \n    // Mapping to track port IDs to ship arrival event IDs for quick lookup\n    mapping(string => bytes32[]) private _portIdToEvents;\n    \n    /**\n     * @dev Constructor sets up the contract with ownership\n     */\n    constructor() PortnetEventBase(0) Ownable(msg.sender) {\n        // Initialize contract\n    }\n    \n    /**\n     * @dev Records a new ship arrival event on the blockchain\n     * @param numeroAvis Unique identifier for the ship\n     * @param numeroEscale Name of the ship\n     * @param nomPort Name of the port\n     * @param codePort Code of the port\n     * @param nomNavire Name of the ship\n     * @param etat Current status of the ship arrival (e.g., \"EXPECTED\", \"ARRIVED\")\n     * @return eventId The ID of the recorded event\n     */\n    function recordShipArrival(\n        uint256 numeroAvis,\n        string memory numeroEscale,\n        string memory nomPort,\n        string memory codePort,\n        string memory nomNavire,\n        string memory etat\n    ) public returns (bytes32) {\n        // Generate a unique event ID based on the notice number (assuming it's unique)\n        bytes32 eventId = keccak256(abi.encodePacked(numeroAvis, block.timestamp));\n        \n        // Store the ship arrival data\n        ShipArrival memory arrival = ShipArrival({\n            numeroAvis: numeroAvis,\n            numeroEscale: numeroEscale,\n            nomPort: nomPort,\n            codePort: codePort,\n            nomNavire: nomNavire,\n            etat: etat,\n            timestamp: block.timestamp,\n            exists: true\n        });\n        \n        shipArrivals[numeroAvis] = arrival;\n        _shipIdToEvents[numeroEscale].push(eventId);\n        _callIdToEvent[numeroEscale] = eventId;\n        _portIdToEvents[codePort].push(eventId);\n        \n        // Set the initial status\n        _updateStatus(etat);\n        \n        // Record the event\n        _recordEvent();\n        \n        // Emit the ship arrival specific event\n        emit ShipArrivalRecorded(\n            numeroAvis,\n            numeroEscale,\n            nomPort,\n            codePort,\n            nomNavire,\n            etat,\n            block.timestamp\n        );\n        \n        return eventId;\n    }\n    \n    /**\n     * @dev Updates an existing ship arrival's arrival times\n     * @param _numeroAvis The ship ID of the ship arrival to update\n     * @param _numeroEscale New name of the ship\n     * @param _nomPort New name of the port\n     * @param _codePort New code of the port\n     * @param _nomNavire New name of the ship\n     * @param _etat New status of the ship arrival\n     */\n    function updateShipArrival(\n        uint256 _numeroAvis,\n        string memory _numeroEscale,\n        string memory _nomPort,\n        string memory _codePort,\n        string memory _nomNavire,\n        string memory _etat\n    ) public onlyOwner {\n        require(shipArrivals[_numeroAvis].exists, \"Ship arrival not found\");\n\n        ShipArrival storage arrival = shipArrivals[_numeroAvis];\n        arrival.numeroEscale = _numeroEscale;\n        arrival.nomPort = _nomPort;\n        arrival.codePort = _codePort;\n        arrival.nomNavire = _nomNavire;\n        arrival.etat = _etat;\n        arrival.timestamp = block.timestamp;\n\n        emit ShipArrivalRecorded(\n            _numeroAvis,\n            _numeroEscale,\n            _nomPort,\n            _codePort,\n            _nomNavire,\n            _etat,\n            block.timestamp\n        );\n    }\n    \n    /**\n     * @dev Gets a ship arrival by ship ID\n     * @param _numeroAvis The ship ID to look up\n     * @return numeroAvis Ship identifier\n     * @return numeroEscale Name of the ship\n     * @return nomPort Name of the port\n     * @return codePort Code of the port\n     * @return nomNavire Name of the ship\n     * @return etat Current status\n     * @return timestamp Timestamp of the arrival\n     */\n    function getShipArrival(uint256 _numeroAvis) public view returns (\n        uint256,\n        string memory,\n        string memory,\n        string memory,\n        string memory,\n        string memory,\n        uint256\n    ) {\n        require(shipArrivals[_numeroAvis].exists, \"Ship arrival not found\");\n        ShipArrival memory arrival = shipArrivals[_numeroAvis];\n        return (\n            arrival.numeroAvis,\n            arrival.numeroEscale,\n            arrival.nomPort,\n            arrival.codePort,\n            arrival.nomNavire,\n            arrival.etat,\n            arrival.timestamp\n        );\n    }\n    \n    /**\n     * @dev Gets all event IDs for a ship\n     * @param shipId The ship ID to look up\n     * @return An array of event IDs\n     */\n    function getShipEvents(string memory shipId) external view returns (bytes32[] memory) {\n        return _shipIdToEvents[shipId];\n    }\n    \n    /**\n     * @dev Gets all event IDs for a port\n     * @param portId The port ID to look up\n     * @return An array of event IDs\n     */\n    function getPortEvents(string memory portId) external view returns (bytes32[] memory) {\n        return _portIdToEvents[portId];\n    }\n    \n    /**\n     * @dev Checks if a ship arrival exists for a ship ID\n     * @param _numeroAvis The ship ID to check\n     * @return True if a ship arrival exists, false otherwise\n     */\n    function shipArrivalExists(uint256 _numeroAvis) public view returns (bool) {\n        return shipArrivals[_numeroAvis].exists;\n    }\n} ",
  "sourcePath": "D:\\Devs\\repositories\\blockchain\\portnet-solution\\berexia-trade\\blockchain\\berexia-chain\\contracts\\ShipArrivalContract.sol",
  "compiler": {
    "name": "solc",
    "version": "0.8.17+commit.8df45f5f.Emscripten.clang"
  },
  "schemaVersion": "3.4.16",
  "updatedAt": "2025-04-04T08:47:50.532Z",
  "devdoc": {
    "details": "Contract for recording ship arrival events from RabbitMQ",
    "kind": "dev",
    "methods": {
      "constructor": {
        "details": "Constructor sets up the contract with ownership"
      },
      "getEventId()": {
        "details": "Returns the event ID",
        "returns": {
          "_0": "The unique identifier for the event"
        }
      },
      "getPortEvents(string)": {
        "details": "Gets all event IDs for a port",
        "params": {
          "portId": "The port ID to look up"
        },
        "returns": {
          "_0": "An array of event IDs"
        }
      },
      "getRecorder()": {
        "details": "Returns the address that recorded this event",
        "returns": {
          "_0": "The recorder's address"
        }
      },
      "getShipArrival(uint256)": {
        "details": "Gets a ship arrival by ship ID",
        "params": {
          "_numeroAvis": "The ship ID to look up"
        },
        "returns": {
          "_0": "numeroAvis Ship identifier",
          "_1": "numeroEscale Name of the ship",
          "_2": "nomPort Name of the port",
          "_3": "codePort Code of the port",
          "_4": "nomNavire Name of the ship",
          "_5": "etat Current status",
          "_6": "timestamp Timestamp of the arrival"
        }
      },
      "getShipEvents(string)": {
        "details": "Gets all event IDs for a ship",
        "params": {
          "shipId": "The ship ID to look up"
        },
        "returns": {
          "_0": "An array of event IDs"
        }
      },
      "getStatus()": {
        "details": "Returns the status of the event",
        "returns": {
          "_0": "The status string"
        }
      },
      "getTimestamp()": {
        "details": "Returns the timestamp when the event was recorded on chain",
        "returns": {
          "_0": "The timestamp"
        }
      },
      "owner()": {
        "details": "Returns the address of the current owner."
      },
      "recordShipArrival(uint256,string,string,string,string,string)": {
        "details": "Records a new ship arrival event on the blockchain",
        "params": {
          "codePort": "Code of the port",
          "etat": "Current status of the ship arrival (e.g., \"EXPECTED\", \"ARRIVED\")",
          "nomNavire": "Name of the ship",
          "nomPort": "Name of the port",
          "numeroAvis": "Unique identifier for the ship",
          "numeroEscale": "Name of the ship"
        },
        "returns": {
          "_0": "eventId The ID of the recorded event"
        }
      },
      "renounceOwnership()": {
        "details": "Leaves the contract without owner. It will not be possible to call `onlyOwner` functions anymore. Can only be called by the current owner. NOTE: Renouncing ownership will leave the contract without an owner, thereby removing any functionality that is only available to the owner."
      },
      "shipArrivalExists(uint256)": {
        "details": "Checks if a ship arrival exists for a ship ID",
        "params": {
          "_numeroAvis": "The ship ID to check"
        },
        "returns": {
          "_0": "True if a ship arrival exists, false otherwise"
        }
      },
      "transferOwnership(address)": {
        "details": "Transfers ownership of the contract to a new account (`newOwner`). Can only be called by the current owner."
      },
      "updateShipArrival(uint256,string,string,string,string,string)": {
        "details": "Updates an existing ship arrival's arrival times",
        "params": {
          "_codePort": "New code of the port",
          "_etat": "New status of the ship arrival",
          "_nomNavire": "New name of the ship",
          "_nomPort": "New name of the port",
          "_numeroAvis": "The ship ID of the ship arrival to update",
          "_numeroEscale": "New name of the ship"
        }
      }
    },
    "title": "ShipArrivalContract",
    "version": 1
  },
  "userdoc": {
    "kind": "user",
    "methods": {},
    "version": 1
  }
}